:020000020000FC
:100000000FE50DBF04E00EBFC1E0112711BB1FEFCC
:1000100010BB1FEF17BB1FEF18BB00C0809B11C0A8
:10002000819B17C0829B1DC0839B23C060FD29C09C
:1000300070FD2AC080FD2BC090FD2CC0879B3EC068
:10004000EDCF60FF20E060FF2F9360FF219661E01D
:10005000E7CF70FF21E070FF2F9370FF219671E0D2
:10006000E1CF80FF22E080FF2F9380FF219681E087
:10007000DBCF90FF23E090FF2F9390FF219691E03C
:10008000D5CF80990AC0D4CF819907C0D3CF8299A8
:1000900004C0D2CF839901C0D1CF60E070E080E08E
:1000A00090E0F0E0A1E00FEF00BBB8CFE1E060E04E
:1000B00070E080E090E0F0E0A1E00895C13069F3E5
:1000C000879BFCCFBB27A0EA4C2F2F912E934A95FC
:1000D0004130D9F7002701BB0FEF00BB8099FECF5D
:1000E00001E0009508BB002701BB0FEF00BBDEDF7E
:1000F000809B0CC0819B11C0829B16C0839B1BC040
:100100004424F411C0C0A531E9F0F2CF809BFECFAA
:10011000F1E020E02F933196EDCF819BFECFF1E00F
:1001200021E02F933196E8CF829BFECFF1E022E0D1
:100130002F933196E3CF839BFECFF1E023E02F9303
:100140003196DECF03C0C52FB1DF44D05C2F5E17E0
:10015000D1F7BB27A0EDDD27C0EA4E2F2F912E93BC
:100160003A91231781F74A954130C1F7C52F55279A
:100170000FEF02E0009508BB00D0829B0DD0839B5F
:1001800010D0849B13D0859B16D0869B19D0879B5B
:100190001CD0819BA3DFF1CF0FEF04E0009508BBDB
:1001A000FBCF0FEF0CE0009508BBFBCF0FEF04E196
:1001B000009508BBFBCF0FEF04E2009508BBFBCF17
:1001C0000FEF04E4009508BBFBCF0FEF04E80095A8
:1001D00008BBFBCF5A2E5694550C2CC0A5112DC030
:1001E000809B0CC0819B11C0829B16C0839B1BC04F
:1001F0004424F41156C0AB3029F1ECCF809BFECFE4
:10020000F1E020E02F933196EDCF819BFECFF1E01E
:1002100021E02F933196E8CF829BFECFF1E022E0E0
:100220002F933196E3CF839BFECFF1E023E02F9312
:100230003196DECF0FEF08BBD1CF0FEF01E0009575
:1002400008BBCECF02C0C52F17D05C2FCE17D9F771
:10025000BB27A0EDDD27C0EA4E2F2F912E933A91B8
:10026000231789F74A954130C1F7C52F55270FEF5E
:1002700002E0009508BB81DF0FEF08BB20C000271C
:1002800008BB2BC0F9CF119656E0B3E1DEEADA9550
:10029000F1F7BA95E1F75A95D1F75527BB27DD2736
:1002A00032CF11965BE0B6E2DEE5DA95F1F7BA956A
:1002B000E1F75A95D1F75527BB27DD279CCF11963B
:1002C0005BE0B6E2DEE5DA95F1F7BA95E1F75A952B
:1002D000D1F75527BB27DD27D2CF11965BE0B6E2D9
:1002E000DEE5DA95F1F7BA95E1F75A95D1F755279A
:0602F000BB27DD27C7CF8C
:00000001FF
